{
  "_format": "hh-sol-artifact-1",
  "contractName": "AIFirewallList",
  "sourceName": "contracts/AIFirewallList.sol",
  "abi": [
    {
      "inputs": [
        {
          "internalType": "address",
          "name": "_toolSubmissionAddress",
          "type": "address"
        },
        {
          "internalType": "address",
          "name": "_toolVotingAddress",
          "type": "address"
        }
      ],
      "stateMutability": "nonpayable",
      "type": "constructor"
    },
    {
      "anonymous": false,
      "inputs": [
        {
          "indexed": false,
          "internalType": "string[]",
          "name": "blockList",
          "type": "string[]"
        }
      ],
      "name": "BlockListGenerated",
      "type": "event"
    },
    {
      "inputs": [
        {
          "internalType": "uint256",
          "name": "",
          "type": "uint256"
        }
      ],
      "name": "blockList",
      "outputs": [
        {
          "internalType": "string",
          "name": "",
          "type": "string"
        }
      ],
      "stateMutability": "view",
      "type": "function"
    },
    {
      "inputs": [],
      "name": "generateBlockList",
      "outputs": [],
      "stateMutability": "nonpayable",
      "type": "function"
    },
    {
      "inputs": [],
      "name": "getBlockList",
      "outputs": [
        {
          "internalType": "string[]",
          "name": "",
          "type": "string[]"
        }
      ],
      "stateMutability": "view",
      "type": "function"
    },
    {
      "inputs": [],
      "name": "minDownvotesForBlock",
      "outputs": [
        {
          "internalType": "uint256",
          "name": "",
          "type": "uint256"
        }
      ],
      "stateMutability": "view",
      "type": "function"
    },
    {
      "inputs": [],
      "name": "toolSubmission",
      "outputs": [
        {
          "internalType": "contract AIToolSubmission",
          "name": "",
          "type": "address"
        }
      ],
      "stateMutability": "view",
      "type": "function"
    },
    {
      "inputs": [],
      "name": "toolVoting",
      "outputs": [
        {
          "internalType": "contract AIToolVoting",
          "name": "",
          "type": "address"
        }
      ],
      "stateMutability": "view",
      "type": "function"
    }
  ],
  "bytecode": "0x608060405260326002553480156200001657600080fd5b50604051620016023803806200160283398181016040528101906200003c91906200012f565b816000806101000a81548173ffffffffffffffffffffffffffffffffffffffff021916908373ffffffffffffffffffffffffffffffffffffffff16021790555080600160006101000a81548173ffffffffffffffffffffffffffffffffffffffff021916908373ffffffffffffffffffffffffffffffffffffffff160217905550505062000176565b600080fd5b600073ffffffffffffffffffffffffffffffffffffffff82169050919050565b6000620000f782620000ca565b9050919050565b6200010981620000ea565b81146200011557600080fd5b50565b6000815190506200012981620000fe565b92915050565b60008060408385031215620001495762000148620000c5565b5b6000620001598582860162000118565b92505060206200016c8582860162000118565b9150509250929050565b61147c80620001866000396000f3fe608060405234801561001057600080fd5b50600436106100625760003560e01c80632abfa3ab146100675780632bf66edb146100975780633a5462db146100a15780637f0db061146100bf57806399769838146100dd578063c2ee0a57146100fb575b600080fd5b610081600480360381019061007c919061074e565b610119565b60405161008e919061080b565b60405180910390f35b61009f6101c5565b005b6100a9610492565b6040516100b691906108ac565b60405180910390f35b6100c76104b6565b6040516100d491906108d6565b60405180910390f35b6100e56104bc565b6040516100f29190610912565b60405180910390f35b6101036104e2565b6040516101109190610a39565b60405180910390f35b6003818154811061012957600080fd5b90600052602060002001600091509050805461014490610a8a565b80601f016020809104026020016040519081016040528092919081815260200182805461017090610a8a565b80156101bd5780601f10610192576101008083540402835291602001916101bd565b820191906000526020600020905b8154815290600101906020018083116101a057829003601f168201915b505050505081565b600360006101d39190610662565b6000600190505b60008054906101000a900473ffffffffffffffffffffffffffffffffffffffff1673ffffffffffffffffffffffffffffffffffffffff1663faf23b236040518163ffffffff1660e01b8152600401602060405180830381865afa158015610245573d6000803e3d6000fd5b505050506040513d601f19601f820116820180604052508101906102699190610ad0565b8111610457576000600160009054906101000a900473ffffffffffffffffffffffffffffffffffffffff1673ffffffffffffffffffffffffffffffffffffffff1663ff981099836040518263ffffffff1660e01b81526004016102cc91906108d6565b6040805180830381865afa1580156102e8573d6000803e3d6000fd5b505050506040513d601f19601f8201168201806040525081019061030c9190610afd565b91505060008060009054906101000a900473ffffffffffffffffffffffffffffffffffffffff1673ffffffffffffffffffffffffffffffffffffffff1663d285af53846040518263ffffffff1660e01b815260040161036b91906108d6565b600060405180830381865afa158015610388573d6000803e3d6000fd5b505050506040513d6000823e3d601f19601f820116820180604052508101906103b19190610f35565b905060025482101580610403575061040281608001516040518060400160405280600681526020017f62616e6e656400000000000000000000000000000000000000000000000000008152506105bb565b5b1561044257600381602001519080600181540180825580915050600190039060005260206000200160009091909190915090816104409190611120565b505b5050808061044f90611221565b9150506101da565b507f02797d2a7bd59ad0ac589465964585da133b2818e74190229eed059882faebb2600360405161048891906113a2565b60405180910390a1565b60008054906101000a900473ffffffffffffffffffffffffffffffffffffffff1681565b60025481565b600160009054906101000a900473ffffffffffffffffffffffffffffffffffffffff1681565b60606003805480602002602001604051908101604052809291908181526020016000905b828210156105b257838290600052602060002001805461052590610a8a565b80601f016020809104026020016040519081016040528092919081815260200182805461055190610a8a565b801561059e5780601f106105735761010080835404028352916020019161059e565b820191906000526020600020905b81548152906001019060200180831161058157829003601f168201915b505050505081526020019060010190610506565b50505050905090565b600080600090505b835181101561065657826040516020016105dd9190611400565b6040516020818303038152906040528051906020012084828151811061060657610605611417565b5b602002602001015160405160200161061e9190611400565b604051602081830303815290604052805190602001200361064357600191505061065c565b808061064e90611221565b9150506105c3565b50600090505b92915050565b50805460008255906000526020600020908101906106809190610683565b50565b5b808211156106a3576000818161069a91906106a7565b50600101610684565b5090565b5080546106b390610a8a565b6000825580601f106106c557506106e4565b601f0160209004906000526020600020908101906106e391906106e7565b5b50565b5b808211156107005760008160009055506001016106e8565b5090565b6000604051905090565b600080fd5b600080fd5b6000819050919050565b61072b81610718565b811461073657600080fd5b50565b60008135905061074881610722565b92915050565b6000602082840312156107645761076361070e565b5b600061077284828501610739565b91505092915050565b600081519050919050565b600082825260208201905092915050565b60005b838110156107b557808201518184015260208101905061079a565b60008484015250505050565b6000601f19601f8301169050919050565b60006107dd8261077b565b6107e78185610786565b93506107f7818560208601610797565b610800816107c1565b840191505092915050565b6000602082019050818103600083015261082581846107d2565b905092915050565b600073ffffffffffffffffffffffffffffffffffffffff82169050919050565b6000819050919050565b600061087261086d6108688461082d565b61084d565b61082d565b9050919050565b600061088482610857565b9050919050565b600061089682610879565b9050919050565b6108a68161088b565b82525050565b60006020820190506108c1600083018461089d565b92915050565b6108d081610718565b82525050565b60006020820190506108eb60008301846108c7565b92915050565b60006108fc82610879565b9050919050565b61090c816108f1565b82525050565b60006020820190506109276000830184610903565b92915050565b600081519050919050565b600082825260208201905092915050565b6000819050602082019050919050565b600082825260208201905092915050565b60006109758261077b565b61097f8185610959565b935061098f818560208601610797565b610998816107c1565b840191505092915050565b60006109af838361096a565b905092915050565b6000602082019050919050565b60006109cf8261092d565b6109d98185610938565b9350836020820285016109eb85610949565b8060005b85811015610a275784840389528151610a0885826109a3565b9450610a13836109b7565b925060208a019950506001810190506109ef565b50829750879550505050505092915050565b60006020820190508181036000830152610a5381846109c4565b905092915050565b7f4e487b7100000000000000000000000000000000000000000000000000000000600052602260045260246000fd5b60006002820490506001821680610aa257607f821691505b602082108103610ab557610ab4610a5b565b5b50919050565b600081519050610aca81610722565b92915050565b600060208284031215610ae657610ae561070e565b5b6000610af484828501610abb565b91505092915050565b60008060408385031215610b1457610b1361070e565b5b6000610b2285828601610abb565b9250506020610b3385828601610abb565b9150509250929050565b600080fd5b7f4e487b7100000000000000000000000000000000000000000000000000000000600052604160045260246000fd5b610b7a826107c1565b810181811067ffffffffffffffff82111715610b9957610b98610b42565b5b80604052505050565b6000610bac610704565b9050610bb88282610b71565b919050565b600080fd5b600080fd5b600080fd5b600067ffffffffffffffff821115610be757610be6610b42565b5b610bf0826107c1565b9050602081019050919050565b6000610c10610c0b84610bcc565b610ba2565b905082815260208101848484011115610c2c57610c2b610bc7565b5b610c37848285610797565b509392505050565b600082601f830112610c5457610c53610bc2565b5b8151610c64848260208601610bfd565b91505092915050565b600067ffffffffffffffff821115610c8857610c87610b42565b5b602082029050602081019050919050565b600080fd5b6000610cb1610cac84610c6d565b610ba2565b90508083825260208201905060208402830185811115610cd457610cd3610c99565b5b835b81811015610d1b57805167ffffffffffffffff811115610cf957610cf8610bc2565b5b808601610d068982610c3f565b85526020850194505050602081019050610cd6565b5050509392505050565b600082601f830112610d3a57610d39610bc2565b5b8151610d4a848260208601610c9e565b91505092915050565b6000610d5e8261082d565b9050919050565b610d6e81610d53565b8114610d7957600080fd5b50565b600081519050610d8b81610d65565b92915050565b60006101208284031215610da857610da7610b3d565b5b610db3610120610ba2565b90506000610dc384828501610abb565b600083015250602082015167ffffffffffffffff811115610de757610de6610bbd565b5b610df384828501610c3f565b602083015250604082015167ffffffffffffffff811115610e1757610e16610bbd565b5b610e2384828501610c3f565b604083015250606082015167ffffffffffffffff811115610e4757610e46610bbd565b5b610e5384828501610c3f565b606083015250608082015167ffffffffffffffff811115610e7757610e76610bbd565b5b610e8384828501610d25565b60808301525060a082015167ffffffffffffffff811115610ea757610ea6610bbd565b5b610eb384828501610d25565b60a08301525060c082015167ffffffffffffffff811115610ed757610ed6610bbd565b5b610ee384828501610d25565b60c08301525060e082015167ffffffffffffffff811115610f0757610f06610bbd565b5b610f1384828501610d25565b60e083015250610100610f2884828501610d7c565b6101008301525092915050565b600060208284031215610f4b57610f4a61070e565b5b600082015167ffffffffffffffff811115610f6957610f68610713565b5b610f7584828501610d91565b91505092915050565b60008190508160005260206000209050919050565b60006020601f8301049050919050565b600082821b905092915050565b600060088302610fe07fffffffffffffffffffffffffffffffffffffffffffffffffffffffffffffffff82610fa3565b610fea8683610fa3565b95508019841693508086168417925050509392505050565b600061101d61101861101384610718565b61084d565b610718565b9050919050565b6000819050919050565b61103783611002565b61104b61104382611024565b848454610fb0565b825550505050565b600090565b611060611053565b61106b81848461102e565b505050565b5b8181101561108f57611084600082611058565b600181019050611071565b5050565b601f8211156110d4576110a581610f7e565b6110ae84610f93565b810160208510156110bd578190505b6110d16110c985610f93565b830182611070565b50505b505050565b600082821c905092915050565b60006110f7600019846008026110d9565b1980831691505092915050565b600061111083836110e6565b9150826002028217905092915050565b6111298261077b565b67ffffffffffffffff81111561114257611141610b42565b5b61114c8254610a8a565b611157828285611093565b600060209050601f83116001811461118a5760008415611178578287015190505b6111828582611104565b8655506111ea565b601f19841661119886610f7e565b60005b828110156111c05784890151825560018201915060208501945060208101905061119b565b868310156111dd57848901516111d9601f8916826110e6565b8355505b6001600288020188555050505b505050505050565b7f4e487b7100000000000000000000000000000000000000000000000000000000600052601160045260246000fd5b600061122c82610718565b91507fffffffffffffffffffffffffffffffffffffffffffffffffffffffffffffffff820361125e5761125d6111f2565b5b600182019050919050565b600081549050919050565b60008190508160005260206000209050919050565b6000815461129681610a8a565b6112a08186610959565b945060018216600081146112bb57600181146112d157611304565b60ff198316865281151560200286019350611304565b6112da85610f7e565b60005b838110156112fc578154818901526001820191506020810190506112dd565b808801955050505b50505092915050565b60006113198383611289565b905092915050565b6000600182019050919050565b600061133982611269565b6113438185610938565b93508360208202850161135585611274565b8060005b8581101561139057848403895281611371858261130d565b945061137c83611321565b925060208a01995050600181019050611359565b50829750879550505050505092915050565b600060208201905081810360008301526113bc818461132e565b905092915050565b600081905092915050565b60006113da8261077b565b6113e481856113c4565b93506113f4818560208601610797565b80840191505092915050565b600061140c82846113cf565b915081905092915050565b7f4e487b7100000000000000000000000000000000000000000000000000000000600052603260045260246000fdfea26469706673582212200c585df1f6f9938e89044718bf71c564ba454472320c3fab82f86284f9554a1564736f6c63430008120033",
  "linkReferences": {},
  "deployedLinkReferences": {}
}