{
  "_format": "hh-sol-artifact-1",
  "contractName": "AIToolSubmission",
  "sourceName": "contracts/AIToolSubmission.sol",
  "abi": [
    {
      "anonymous": false,
      "inputs": [
        {
          "indexed": true,
          "internalType": "uint256",
          "name": "id",
          "type": "uint256"
        },
        {
          "indexed": true,
          "internalType": "address",
          "name": "submitter",
          "type": "address"
        }
      ],
      "name": "ToolSubmitted",
      "type": "event"
    },
    {
      "anonymous": false,
      "inputs": [
        {
          "indexed": true,
          "internalType": "uint256",
          "name": "id",
          "type": "uint256"
        },
        {
          "indexed": false,
          "internalType": "string",
          "name": "title",
          "type": "string"
        },
        {
          "indexed": false,
          "internalType": "string",
          "name": "description",
          "type": "string"
        }
      ],
      "name": "ToolUpdated",
      "type": "event"
    },
    {
      "inputs": [
        {
          "internalType": "uint256",
          "name": "_id",
          "type": "uint256"
        }
      ],
      "name": "getTool",
      "outputs": [
        {
          "components": [
            {
              "internalType": "uint256",
              "name": "id",
              "type": "uint256"
            },
            {
              "internalType": "string",
              "name": "title",
              "type": "string"
            },
            {
              "internalType": "string",
              "name": "description",
              "type": "string"
            },
            {
              "internalType": "string",
              "name": "imageUrl",
              "type": "string"
            },
            {
              "internalType": "string[]",
              "name": "flags",
              "type": "string[]"
            },
            {
              "internalType": "string[]",
              "name": "tags",
              "type": "string[]"
            },
            {
              "internalType": "string[]",
              "name": "models",
              "type": "string[]"
            },
            {
              "internalType": "string[]",
              "name": "safetyConcerns",
              "type": "string[]"
            },
            {
              "internalType": "address",
              "name": "submitter",
              "type": "address"
            }
          ],
          "internalType": "struct AIToolSubmission.AITool",
          "name": "",
          "type": "tuple"
        }
      ],
      "stateMutability": "view",
      "type": "function"
    },
    {
      "inputs": [
        {
          "internalType": "string",
          "name": "_title",
          "type": "string"
        },
        {
          "internalType": "string",
          "name": "_description",
          "type": "string"
        },
        {
          "internalType": "string",
          "name": "_imageUrl",
          "type": "string"
        },
        {
          "internalType": "string[]",
          "name": "_flags",
          "type": "string[]"
        },
        {
          "internalType": "string[]",
          "name": "_tags",
          "type": "string[]"
        },
        {
          "internalType": "string[]",
          "name": "_models",
          "type": "string[]"
        },
        {
          "internalType": "string[]",
          "name": "_safetyConcerns",
          "type": "string[]"
        }
      ],
      "name": "submitTool",
      "outputs": [],
      "stateMutability": "nonpayable",
      "type": "function"
    },
    {
      "inputs": [],
      "name": "toolCount",
      "outputs": [
        {
          "internalType": "uint256",
          "name": "",
          "type": "uint256"
        }
      ],
      "stateMutability": "view",
      "type": "function"
    },
    {
      "inputs": [
        {
          "internalType": "uint256",
          "name": "",
          "type": "uint256"
        }
      ],
      "name": "tools",
      "outputs": [
        {
          "internalType": "uint256",
          "name": "id",
          "type": "uint256"
        },
        {
          "internalType": "string",
          "name": "title",
          "type": "string"
        },
        {
          "internalType": "string",
          "name": "description",
          "type": "string"
        },
        {
          "internalType": "string",
          "name": "imageUrl",
          "type": "string"
        },
        {
          "internalType": "address",
          "name": "submitter",
          "type": "address"
        }
      ],
      "stateMutability": "view",
      "type": "function"
    },
    {
      "inputs": [
        {
          "internalType": "uint256",
          "name": "_id",
          "type": "uint256"
        },
        {
          "internalType": "string",
          "name": "_title",
          "type": "string"
        },
        {
          "internalType": "string",
          "name": "_description",
          "type": "string"
        }
      ],
      "name": "updateTool",
      "outputs": [],
      "stateMutability": "nonpayable",
      "type": "function"
    }
  ],
  "bytecode": "0x608060405234801561001057600080fd5b5061196b806100206000396000f3fe608060405234801561001057600080fd5b50600436106100575760003560e01c80633786f6011461005c578063bc60c31d14610078578063d285af53146100ac578063f9fc0401146100dc578063faf23b23146100f8575b600080fd5b61007660048036038101906100719190610e86565b610116565b005b610092600480360381019061008d9190610f11565b610241565b6040516100a395949392919061100d565b60405180910390f35b6100c660048036038101906100c19190610f11565b61042f565b6040516100d3919061128e565b60405180910390f35b6100f660048036038101906100f19190611396565b6109d7565b005b610100610bb4565b60405161010d91906114fc565b60405180910390f35b3373ffffffffffffffffffffffffffffffffffffffff166001600085815260200190815260200160002060080160009054906101000a900473ffffffffffffffffffffffffffffffffffffffff1673ffffffffffffffffffffffffffffffffffffffff16146101ba576040517f08c379a00000000000000000000000000000000000000000000000000000000081526004016101b190611589565b60405180910390fd5b816001600085815260200190815260200160002060010190816101dd91906117b5565b508060016000858152602001908152602001600020600201908161020191906117b5565b50827f3f1efdba4e85cfe29f538dae19a5572c3308ebaaf924f5b265552c9c7be5670a8383604051610234929190611887565b60405180910390a2505050565b600160205280600052604060002060009150905080600001549080600101805461026a906115d8565b80601f0160208091040260200160405190810160405280929190818152602001828054610296906115d8565b80156102e35780601f106102b8576101008083540402835291602001916102e3565b820191906000526020600020905b8154815290600101906020018083116102c657829003601f168201915b5050505050908060020180546102f8906115d8565b80601f0160208091040260200160405190810160405280929190818152602001828054610324906115d8565b80156103715780601f1061034657610100808354040283529160200191610371565b820191906000526020600020905b81548152906001019060200180831161035457829003601f168201915b505050505090806003018054610386906115d8565b80601f01602080910402602001604051908101604052809291908181526020018280546103b2906115d8565b80156103ff5780601f106103d4576101008083540402835291602001916103ff565b820191906000526020600020905b8154815290600101906020018083116103e257829003601f168201915b5050505050908060080160009054906101000a900473ffffffffffffffffffffffffffffffffffffffff16905085565b610437610bba565b600160008381526020019081526020016000206040518061012001604052908160008201548152602001600182018054610470906115d8565b80601f016020809104026020016040519081016040528092919081815260200182805461049c906115d8565b80156104e95780601f106104be576101008083540402835291602001916104e9565b820191906000526020600020905b8154815290600101906020018083116104cc57829003601f168201915b50505050508152602001600282018054610502906115d8565b80601f016020809104026020016040519081016040528092919081815260200182805461052e906115d8565b801561057b5780601f106105505761010080835404028352916020019161057b565b820191906000526020600020905b81548152906001019060200180831161055e57829003601f168201915b50505050508152602001600382018054610594906115d8565b80601f01602080910402602001604051908101604052809291908181526020018280546105c0906115d8565b801561060d5780601f106105e25761010080835404028352916020019161060d565b820191906000526020600020905b8154815290600101906020018083116105f057829003601f168201915b5050505050815260200160048201805480602002602001604051908101604052809291908181526020016000905b828210156106e757838290600052602060002001805461065a906115d8565b80601f0160208091040260200160405190810160405280929190818152602001828054610686906115d8565b80156106d35780601f106106a8576101008083540402835291602001916106d3565b820191906000526020600020905b8154815290600101906020018083116106b657829003601f168201915b50505050508152602001906001019061063b565b50505050815260200160058201805480602002602001604051908101604052809291908181526020016000905b828210156107c0578382906000526020600020018054610733906115d8565b80601f016020809104026020016040519081016040528092919081815260200182805461075f906115d8565b80156107ac5780601f10610781576101008083540402835291602001916107ac565b820191906000526020600020905b81548152906001019060200180831161078f57829003601f168201915b505050505081526020019060010190610714565b50505050815260200160068201805480602002602001604051908101604052809291908181526020016000905b8282101561089957838290600052602060002001805461080c906115d8565b80601f0160208091040260200160405190810160405280929190818152602001828054610838906115d8565b80156108855780601f1061085a57610100808354040283529160200191610885565b820191906000526020600020905b81548152906001019060200180831161086857829003601f168201915b5050505050815260200190600101906107ed565b50505050815260200160078201805480602002602001604051908101604052809291908181526020016000905b828210156109725783829060005260206000200180546108e5906115d8565b80601f0160208091040260200160405190810160405280929190818152602001828054610911906115d8565b801561095e5780601f106109335761010080835404028352916020019161095e565b820191906000526020600020905b81548152906001019060200180831161094157829003601f168201915b5050505050815260200190600101906108c6565b5050505081526020016008820160009054906101000a900473ffffffffffffffffffffffffffffffffffffffff1673ffffffffffffffffffffffffffffffffffffffff1673ffffffffffffffffffffffffffffffffffffffff16815250509050919050565b6000808154809291906109e9906118ed565b919050555060405180610120016040528060005481526020018881526020018781526020018681526020018581526020018481526020018381526020018281526020013373ffffffffffffffffffffffffffffffffffffffff168152506001600080548152602001908152602001600020600082015181600001556020820151816001019081610a7991906117b5565b506040820151816002019081610a8f91906117b5565b506060820151816003019081610aa591906117b5565b506080820151816004019080519060200190610ac2929190610c1c565b5060a0820151816005019080519060200190610adf929190610c1c565b5060c0820151816006019080519060200190610afc929190610c1c565b5060e0820151816007019080519060200190610b19929190610c1c565b506101008201518160080160006101000a81548173ffffffffffffffffffffffffffffffffffffffff021916908373ffffffffffffffffffffffffffffffffffffffff1602179055509050503373ffffffffffffffffffffffffffffffffffffffff166000547fdaa755cf119a7e7e7f8e3975a6fbcae5806c31b9cf5715653cb4d6fa28f40cdf60405160405180910390a350505050505050565b60005481565b6040518061012001604052806000815260200160608152602001606081526020016060815260200160608152602001606081526020016060815260200160608152602001600073ffffffffffffffffffffffffffffffffffffffff1681525090565b828054828255906000526020600020908101928215610c64579160200282015b82811115610c63578251829081610c5391906117b5565b5091602001919060010190610c3c565b5b509050610c719190610c75565b5090565b5b80821115610c955760008181610c8c9190610c99565b50600101610c76565b5090565b508054610ca5906115d8565b6000825580601f10610cb75750610cd6565b601f016020900490600052602060002090810190610cd59190610cd9565b5b50565b5b80821115610cf2576000816000905550600101610cda565b5090565b6000604051905090565b600080fd5b600080fd5b6000819050919050565b610d1d81610d0a565b8114610d2857600080fd5b50565b600081359050610d3a81610d14565b92915050565b600080fd5b600080fd5b6000601f19601f8301169050919050565b7f4e487b7100000000000000000000000000000000000000000000000000000000600052604160045260246000fd5b610d9382610d4a565b810181811067ffffffffffffffff82111715610db257610db1610d5b565b5b80604052505050565b6000610dc5610cf6565b9050610dd18282610d8a565b919050565b600067ffffffffffffffff821115610df157610df0610d5b565b5b610dfa82610d4a565b9050602081019050919050565b82818337600083830152505050565b6000610e29610e2484610dd6565b610dbb565b905082815260208101848484011115610e4557610e44610d45565b5b610e50848285610e07565b509392505050565b600082601f830112610e6d57610e6c610d40565b5b8135610e7d848260208601610e16565b91505092915050565b600080600060608486031215610e9f57610e9e610d00565b5b6000610ead86828701610d2b565b935050602084013567ffffffffffffffff811115610ece57610ecd610d05565b5b610eda86828701610e58565b925050604084013567ffffffffffffffff811115610efb57610efa610d05565b5b610f0786828701610e58565b9150509250925092565b600060208284031215610f2757610f26610d00565b5b6000610f3584828501610d2b565b91505092915050565b610f4781610d0a565b82525050565b600081519050919050565b600082825260208201905092915050565b60005b83811015610f87578082015181840152602081019050610f6c565b60008484015250505050565b6000610f9e82610f4d565b610fa88185610f58565b9350610fb8818560208601610f69565b610fc181610d4a565b840191505092915050565b600073ffffffffffffffffffffffffffffffffffffffff82169050919050565b6000610ff782610fcc565b9050919050565b61100781610fec565b82525050565b600060a0820190506110226000830188610f3e565b81810360208301526110348187610f93565b905081810360408301526110488186610f93565b9050818103606083015261105c8185610f93565b905061106b6080830184610ffe565b9695505050505050565b61107e81610d0a565b82525050565b600082825260208201905092915050565b60006110a082610f4d565b6110aa8185611084565b93506110ba818560208601610f69565b6110c381610d4a565b840191505092915050565b600081519050919050565b600082825260208201905092915050565b6000819050602082019050919050565b60006111068383611095565b905092915050565b6000602082019050919050565b6000611126826110ce565b61113081856110d9565b935083602082028501611142856110ea565b8060005b8581101561117e578484038952815161115f85826110fa565b945061116a8361110e565b925060208a01995050600181019050611146565b50829750879550505050505092915050565b61119981610fec565b82525050565b6000610120830160008301516111b86000860182611075565b50602083015184820360208601526111d08282611095565b915050604083015184820360408601526111ea8282611095565b915050606083015184820360608601526112048282611095565b9150506080830151848203608086015261121e828261111b565b91505060a083015184820360a0860152611238828261111b565b91505060c083015184820360c0860152611252828261111b565b91505060e083015184820360e086015261126c828261111b565b915050610100830151611283610100860182611190565b508091505092915050565b600060208201905081810360008301526112a8818461119f565b905092915050565b600067ffffffffffffffff8211156112cb576112ca610d5b565b5b602082029050602081019050919050565b600080fd5b60006112f46112ef846112b0565b610dbb565b90508083825260208201905060208402830185811115611317576113166112dc565b5b835b8181101561135e57803567ffffffffffffffff81111561133c5761133b610d40565b5b8086016113498982610e58565b85526020850194505050602081019050611319565b5050509392505050565b600082601f83011261137d5761137c610d40565b5b813561138d8482602086016112e1565b91505092915050565b600080600080600080600060e0888a0312156113b5576113b4610d00565b5b600088013567ffffffffffffffff8111156113d3576113d2610d05565b5b6113df8a828b01610e58565b975050602088013567ffffffffffffffff811115611400576113ff610d05565b5b61140c8a828b01610e58565b965050604088013567ffffffffffffffff81111561142d5761142c610d05565b5b6114398a828b01610e58565b955050606088013567ffffffffffffffff81111561145a57611459610d05565b5b6114668a828b01611368565b945050608088013567ffffffffffffffff81111561148757611486610d05565b5b6114938a828b01611368565b93505060a088013567ffffffffffffffff8111156114b4576114b3610d05565b5b6114c08a828b01611368565b92505060c088013567ffffffffffffffff8111156114e1576114e0610d05565b5b6114ed8a828b01611368565b91505092959891949750929550565b60006020820190506115116000830184610f3e565b92915050565b7f4f6e6c79207375626d69747465722063616e207570646174652074686520746f60008201527f6f6c000000000000000000000000000000000000000000000000000000000000602082015250565b6000611573602283610f58565b915061157e82611517565b604082019050919050565b600060208201905081810360008301526115a281611566565b9050919050565b7f4e487b7100000000000000000000000000000000000000000000000000000000600052602260045260246000fd5b600060028204905060018216806115f057607f821691505b602082108103611603576116026115a9565b5b50919050565b60008190508160005260206000209050919050565b60006020601f8301049050919050565b600082821b905092915050565b60006008830261166b7fffffffffffffffffffffffffffffffffffffffffffffffffffffffffffffffff8261162e565b611675868361162e565b95508019841693508086168417925050509392505050565b6000819050919050565b60006116b26116ad6116a884610d0a565b61168d565b610d0a565b9050919050565b6000819050919050565b6116cc83611697565b6116e06116d8826116b9565b84845461163b565b825550505050565b600090565b6116f56116e8565b6117008184846116c3565b505050565b5b81811015611724576117196000826116ed565b600181019050611706565b5050565b601f8211156117695761173a81611609565b6117438461161e565b81016020851015611752578190505b61176661175e8561161e565b830182611705565b50505b505050565b600082821c905092915050565b600061178c6000198460080261176e565b1980831691505092915050565b60006117a5838361177b565b9150826002028217905092915050565b6117be82610f4d565b67ffffffffffffffff8111156117d7576117d6610d5b565b5b6117e182546115d8565b6117ec828285611728565b600060209050601f83116001811461181f576000841561180d578287015190505b6118178582611799565b86555061187f565b601f19841661182d86611609565b60005b8281101561185557848901518255600182019150602085019450602081019050611830565b86831015611872578489015161186e601f89168261177b565b8355505b6001600288020188555050505b505050505050565b600060408201905081810360008301526118a18185610f93565b905081810360208301526118b58184610f93565b90509392505050565b7f4e487b7100000000000000000000000000000000000000000000000000000000600052601160045260246000fd5b60006118f882610d0a565b91507fffffffffffffffffffffffffffffffffffffffffffffffffffffffffffffffff820361192a576119296118be565b5b60018201905091905056fea2646970667358221220e72012a182665d5b3e156932cdb7c2cc2181ef862592c1f547ccc493d654f91e64736f6c63430008120033",
  "linkReferences": {},
  "deployedLinkReferences": {}
}