{
  "_format": "hh-sol-artifact-1",
  "contractName": "AIToolVoting",
  "sourceName": "contracts/AIToolVoting.sol",
  "abi": [
    {
      "anonymous": false,
      "inputs": [
        {
          "indexed": true,
          "internalType": "uint256",
          "name": "toolId",
          "type": "uint256"
        },
        {
          "indexed": true,
          "internalType": "address",
          "name": "voter",
          "type": "address"
        },
        {
          "indexed": false,
          "internalType": "bool",
          "name": "isUpvote",
          "type": "bool"
        },
        {
          "indexed": false,
          "internalType": "string",
          "name": "reason",
          "type": "string"
        }
      ],
      "name": "Voted",
      "type": "event"
    },
    {
      "inputs": [
        {
          "internalType": "uint256",
          "name": "toolId",
          "type": "uint256"
        },
        {
          "internalType": "string",
          "name": "reason",
          "type": "string"
        }
      ],
      "name": "downvoteTool",
      "outputs": [],
      "stateMutability": "nonpayable",
      "type": "function"
    },
    {
      "inputs": [
        {
          "internalType": "uint256",
          "name": "toolId",
          "type": "uint256"
        },
        {
          "internalType": "address",
          "name": "voter",
          "type": "address"
        }
      ],
      "name": "getReasonForVote",
      "outputs": [
        {
          "internalType": "string",
          "name": "",
          "type": "string"
        }
      ],
      "stateMutability": "view",
      "type": "function"
    },
    {
      "inputs": [
        {
          "internalType": "uint256",
          "name": "toolId",
          "type": "uint256"
        }
      ],
      "name": "getVotes",
      "outputs": [
        {
          "internalType": "uint256",
          "name": "upvotes",
          "type": "uint256"
        },
        {
          "internalType": "uint256",
          "name": "downvotes",
          "type": "uint256"
        }
      ],
      "stateMutability": "view",
      "type": "function"
    },
    {
      "inputs": [
        {
          "internalType": "uint256",
          "name": "",
          "type": "uint256"
        }
      ],
      "name": "toolVotes",
      "outputs": [
        {
          "internalType": "uint256",
          "name": "upvotes",
          "type": "uint256"
        },
        {
          "internalType": "uint256",
          "name": "downvotes",
          "type": "uint256"
        }
      ],
      "stateMutability": "view",
      "type": "function"
    },
    {
      "inputs": [
        {
          "internalType": "uint256",
          "name": "toolId",
          "type": "uint256"
        },
        {
          "internalType": "string",
          "name": "reason",
          "type": "string"
        }
      ],
      "name": "upvoteTool",
      "outputs": [],
      "stateMutability": "nonpayable",
      "type": "function"
    }
  ],
  "bytecode": "0x608060405234801561001057600080fd5b50610e11806100206000396000f3fe608060405234801561001057600080fd5b50600436106100575760003560e01c8063305ea9e61461005c57806343fcb08e14610078578063da55a738146100a8578063eb597652146100d9578063ff981099146100f5575b600080fd5b610076600480360381019061007191906107cf565b610126565b005b610092600480360381019061008d9190610889565b610312565b60405161009f9190610948565b60405180910390f35b6100c260048036038101906100bd919061096a565b6103f7565b6040516100d09291906109a6565b60405180910390f35b6100f360048036038101906100ee91906107cf565b61041b565b005b61010f600480360381019061010a919061096a565b610607565b60405161011d9291906109a6565b60405180910390f35b60008083815260200190815260200160002060020160003373ffffffffffffffffffffffffffffffffffffffff1673ffffffffffffffffffffffffffffffffffffffff16815260200190815260200160002060009054906101000a900460ff16156101c6576040517f08c379a00000000000000000000000000000000000000000000000000000000081526004016101bd90610a1b565b60405180910390fd5b60008083815260200190815260200160002060000160008154809291906101ec90610a6a565b9190505550600160008084815260200190815260200160002060020160003373ffffffffffffffffffffffffffffffffffffffff1673ffffffffffffffffffffffffffffffffffffffff16815260200190815260200160002060006101000a81548160ff0219169083151502179055508060008084815260200190815260200160002060030160003373ffffffffffffffffffffffffffffffffffffffff1673ffffffffffffffffffffffffffffffffffffffff16815260200190815260200160002090816102bb9190610cbe565b503373ffffffffffffffffffffffffffffffffffffffff16827f129d090a1a308172cf216a8d24ee8d70724278df1b46590a3681379efc3a1af7600184604051610306929190610dab565b60405180910390a35050565b606060008084815260200190815260200160002060030160008373ffffffffffffffffffffffffffffffffffffffff1673ffffffffffffffffffffffffffffffffffffffff168152602001908152602001600020805461037190610ae1565b80601f016020809104026020016040519081016040528092919081815260200182805461039d90610ae1565b80156103ea5780601f106103bf576101008083540402835291602001916103ea565b820191906000526020600020905b8154815290600101906020018083116103cd57829003601f168201915b5050505050905092915050565b60006020528060005260406000206000915090508060000154908060010154905082565b60008083815260200190815260200160002060020160003373ffffffffffffffffffffffffffffffffffffffff1673ffffffffffffffffffffffffffffffffffffffff16815260200190815260200160002060009054906101000a900460ff16156104bb576040517f08c379a00000000000000000000000000000000000000000000000000000000081526004016104b290610a1b565b60405180910390fd5b60008083815260200190815260200160002060010160008154809291906104e190610a6a565b9190505550600160008084815260200190815260200160002060020160003373ffffffffffffffffffffffffffffffffffffffff1673ffffffffffffffffffffffffffffffffffffffff16815260200190815260200160002060006101000a81548160ff0219169083151502179055508060008084815260200190815260200160002060030160003373ffffffffffffffffffffffffffffffffffffffff1673ffffffffffffffffffffffffffffffffffffffff16815260200190815260200160002090816105b09190610cbe565b503373ffffffffffffffffffffffffffffffffffffffff16827f129d090a1a308172cf216a8d24ee8d70724278df1b46590a3681379efc3a1af76000846040516105fb929190610dab565b60405180910390a35050565b600080600080848152602001908152602001600020600001546000808581526020019081526020016000206001015491509150915091565b6000604051905090565b600080fd5b600080fd5b6000819050919050565b61066681610653565b811461067157600080fd5b50565b6000813590506106838161065d565b92915050565b600080fd5b600080fd5b6000601f19601f8301169050919050565b7f4e487b7100000000000000000000000000000000000000000000000000000000600052604160045260246000fd5b6106dc82610693565b810181811067ffffffffffffffff821117156106fb576106fa6106a4565b5b80604052505050565b600061070e61063f565b905061071a82826106d3565b919050565b600067ffffffffffffffff82111561073a576107396106a4565b5b61074382610693565b9050602081019050919050565b82818337600083830152505050565b600061077261076d8461071f565b610704565b90508281526020810184848401111561078e5761078d61068e565b5b610799848285610750565b509392505050565b600082601f8301126107b6576107b5610689565b5b81356107c684826020860161075f565b91505092915050565b600080604083850312156107e6576107e5610649565b5b60006107f485828601610674565b925050602083013567ffffffffffffffff8111156108155761081461064e565b5b610821858286016107a1565b9150509250929050565b600073ffffffffffffffffffffffffffffffffffffffff82169050919050565b60006108568261082b565b9050919050565b6108668161084b565b811461087157600080fd5b50565b6000813590506108838161085d565b92915050565b600080604083850312156108a05761089f610649565b5b60006108ae85828601610674565b92505060206108bf85828601610874565b9150509250929050565b600081519050919050565b600082825260208201905092915050565b60005b838110156109035780820151818401526020810190506108e8565b60008484015250505050565b600061091a826108c9565b61092481856108d4565b93506109348185602086016108e5565b61093d81610693565b840191505092915050565b60006020820190508181036000830152610962818461090f565b905092915050565b6000602082840312156109805761097f610649565b5b600061098e84828501610674565b91505092915050565b6109a081610653565b82525050565b60006040820190506109bb6000830185610997565b6109c86020830184610997565b9392505050565b7f416c726561647920766f74656400000000000000000000000000000000000000600082015250565b6000610a05600d836108d4565b9150610a10826109cf565b602082019050919050565b60006020820190508181036000830152610a34816109f8565b9050919050565b7f4e487b7100000000000000000000000000000000000000000000000000000000600052601160045260246000fd5b6000610a7582610653565b91507fffffffffffffffffffffffffffffffffffffffffffffffffffffffffffffffff8203610aa757610aa6610a3b565b5b600182019050919050565b7f4e487b7100000000000000000000000000000000000000000000000000000000600052602260045260246000fd5b60006002820490506001821680610af957607f821691505b602082108103610b0c57610b0b610ab2565b5b50919050565b60008190508160005260206000209050919050565b60006020601f8301049050919050565b600082821b905092915050565b600060088302610b747fffffffffffffffffffffffffffffffffffffffffffffffffffffffffffffffff82610b37565b610b7e8683610b37565b95508019841693508086168417925050509392505050565b6000819050919050565b6000610bbb610bb6610bb184610653565b610b96565b610653565b9050919050565b6000819050919050565b610bd583610ba0565b610be9610be182610bc2565b848454610b44565b825550505050565b600090565b610bfe610bf1565b610c09818484610bcc565b505050565b5b81811015610c2d57610c22600082610bf6565b600181019050610c0f565b5050565b601f821115610c7257610c4381610b12565b610c4c84610b27565b81016020851015610c5b578190505b610c6f610c6785610b27565b830182610c0e565b50505b505050565b600082821c905092915050565b6000610c9560001984600802610c77565b1980831691505092915050565b6000610cae8383610c84565b9150826002028217905092915050565b610cc7826108c9565b67ffffffffffffffff811115610ce057610cdf6106a4565b5b610cea8254610ae1565b610cf5828285610c31565b600060209050601f831160018114610d285760008415610d16578287015190505b610d208582610ca2565b865550610d88565b601f198416610d3686610b12565b60005b82811015610d5e57848901518255600182019150602085019450602081019050610d39565b86831015610d7b5784890151610d77601f891682610c84565b8355505b6001600288020188555050505b505050505050565b60008115159050919050565b610da581610d90565b82525050565b6000604082019050610dc06000830185610d9c565b8181036020830152610dd2818461090f565b9050939250505056fea2646970667358221220714c587bbbd06a6874ec492fe86164d92119e0aa79826c22f6fbe948e5db1f5664736f6c63430008120033",
  "linkReferences": {},
  "deployedLinkReferences": {}
}